S02B000041455F434150315F533341375F53545F4D696E695F4170705F5553425F4D6F6E69746F722E73726513
S1130000C87D002085510000994C000081510000FA
S11300108151000081510000815100000000000066
S113002000000000000000000000000081510000FA
S1130030815100000000000065B30000C9B4000055
S1130040514A00002D84000015840000FD83000047
S11300505D090000FFFFFFFFFFFFFFFFFFFFFFFF42
S1130060FFFFFFFFFFFFFFFFFFFFFFFFFFFFFFFF9C
S1130070FFFFFFFFFFFFFFFFFFFFFFFFFFFFFFFF8C
S1130080FFFFFFFFFFFFFFFFFFFFFFFFFFFFFFFF7C
S1130090FFFFFFFFFFFFFFFFFFFFFFFFFFFFFFFF6C
S1130400FFFFFFFFDF8FFFFFFCFF0F00FFFF0F0069
S1130410FCFF0F00FFFF0F00FCFF0F00FFFF0F00AA
S1130420FFFFFFFFFFFFFFFFFFFFFFFFFFFFFFFFD8
S1130430FFFFFFFFFFFFFFFFFFFFFFFFFFFFFFFFC8
S1130440FFFFFFFFFFFFFFFFFFFFFFFFFFFFFFFFB8
S1130450FFFFFFFFFFFFFFFFFFFFFFFFFFFFFFFFA8
S1130460FFFFFFFFFFFFFFFFFFFFFFFFFFFFFFFF98
S1130470FFFFFFFFFFFFFFFFFFFFFFFFFFFFFFFF88
S1130480FFFFFFFFFFFFFFFFFFFFFFFFFFFFFFFF78
S1130490FFFFFFFFFFFFFFFFFFFFFFFFFFFFFFFF68
S11304A0FFFFFFFFFFFFFFFFFFFFFFFFFFFFFFFF58
S11304B0FFFFFFFFFFFFFFFFFFFFFFFFFFFFFFFF48
S11304C0FFFFFFFFFFFFFFFFFFFFFFFFFFFFFFFF38
S11304D0FFFFFFFFFFFFFFFFFFFFFFFFFFFFFFFF28
S11304E0FFFFFFFFFFFFFFFFFFFFFFFFFFFFFFFF18
S11304F0FFFFFFFFFFFFFFFFFFFFFFFFFFFFFFFF08
S1130500EC52002040002F208009002084001700B6
S113051088090020830017107C090020820017201E
S1130520A409002061003320200000002F000000F7
S11305302F0001000C000100110000003000000039
S11305402400000024000100250000002500010013
S11305501300000017000000230000002100000029
S1130560210001000700000007000100070002004D
S11305700700030012000000080000000B00000048
S1130580040000002B0000002B0001002B000200DF
S11305902B0003002B0004002B0005002B00060099
S11305A02B0007002B0008002B00090006000000A8
S11305B006000A0006000B0006000C0006000D00F1
S11305C006000E0006000F000600010006000200EF
S11305D006000300060004000600050006000600ED
S11305E006000700060008000600090015000000C8
S11305F01500010015000200310000002A0000006F
S113060010000000030100000300000003000100CB
S11306100F0000000D0000002D0000002C00000061
S11306202C0001002C0002002C000300320000000A
S1130630280000001800000014000000140001004D
S11306401400020014000300140004001400090044
S1130650340000001900000016000000160001001C
S113066036000000360001002200000033000000C4
S11306702900000010B5054C237833B9044B13B19D
S11306800448AFF300800123237010BDB80200209A
S11306900000000068F00000084B10B51BB10848CA
S11306A00849AFF300800848036803B910BD074B3D
S11306B0002BFBD0BDE81040184700BF000000002D
S11306C068F00000BC0200202402002000000000AA
S11306D040B101230521042201704370C37082706C
S11306E0002070470120704758B151B12DE9F04FF7
S11306F0324B04689C4283B005D0072003B0BDE8A8
S1130700F08F01207047D0F88830002B49D0D0F802
S11307108C60044617468846002E46D0D0F89010C8
S1130720964228BF164601443246943140460BF0A7
S1130730A7FED4F88C20D4F89030921B3344C4F82C
S11307408C20C4F89030BE1BAEB307F03F0B04F10D
S11307509409BBF1000F4FF00003019349460CBF0D
S11307603A468022D4F8880001AB0CF0E7FA8246BE
S11307704946B81BBAF1000F13D1019D40442A46E3
S11307807DB1B54213D9AD1BB81B4044C4F88C509D
S1130790C4F8906032460BF073FE504603B0BDE8D7
S11307A0F08F642003B0BDE8F08F1646CCE70BF061
S11307B067FE761BCDD10020A0E700BF4D435855FE
S11307C090B338B50268194B9A421AD003F17D43AD
S11307D003F56D03C26E03F6F4139A42044600F166
S11307E06C0505D02846124900221C2309F03AFC66
S11307F028464FF47A7109F089FC054618B1142093
S113080038BD082038BD201D0A490122342309F0CF
S11308105FFB04F1380008490122342309F058FB36
S1130820024B2360284638BD012070474D4358557C
S113083084E3000098E30000ACE3000038B110B595
S11308400446043009F09CFB18B1642010BD01205B
S1130850704704F1380009F093FB0028F5D110BD6E
S113086048B141B1F0B5124C0568A54283B004D03B
S1130870072003B0F0BD01207047D0F888605EB156
S113088002AF002347F8043D04463B4630460D467C
S11308900CF0C4FA024610B1642003B0F0BDD4F8E1
S11308A0880029463B460CF0B9FA0028F4D1E0E769
S11308B04D43585580B138B5134B04689C4201D060
S11308C0072038BD0446154641B102290ED001392E
S11308D0012911D9002038BD012070470430114688
S11308E009F064FB08B1142038BD38BD043011464A
S11308F009F05CFB0028F6D104F13800294609F020
S113090055FB0028EFD138BD4D43585578B1124BF3
S113091002689A4201D00720704710B5044641B1DD
S113092002290DD0013901290FD9002010BD012061
S11309307047043009F066FB08B1142010BD10BDE7
S1130940043009F05FFB0028F7D104F1380009F006
S113095059FB0028F1D110BD4D43585510B5EFF3A4
S11309600380103840B204F0EFFA0F4B1B685C6947
S11309708CB11B690D49D3F894208A4218BF00201A
S113098004D10CE0D3F894208A4209D00130A0426B
S113099003F1AC03F6D1BDE8104000F091BE002095
S11309A0BDE8104001F036BAB85D002000000940EF
S11309B0F8B50F4630210446154600F0D1FF30212A
S11309C04FF4C0620646204600F0C2FF20463A219A
S11309D000F0C6FF012DBB680FD001229A4020EA27
S11309E00202204692B23A2100F0C4FF2046B2B27D
S11309F03021BDE8F84000F0BDBF9D4040EA05024B
S1130A00EFE700BFF8B50F4630210446154600F065
S1130A10A7FF30214FF4E0620646204600F098FF1D
S1130A202046382100F09CFF012DBB680FD0012225
S1130A309A4020EA0202204692B2382100F09AFF3E
S1130A402046B2B23021BDE8F84000F093BF9D408B
S1130A5040EA0502EFE700BF38B505460C4600F052
S1130A60B7FA831E032B03D8DFE803F0150E0E0D2F
S1130A7028462146002200F015F828462146002287
S1130A80FFF796FFFF2038BD28462146002200F0DC
S1130A9009F8002038BD28462146012200F002F85A
S1130AA0002038BDF8B50F4630210446154600F045
S1130AB057FF30214FF4E0620646204600F048FF1D
S1130AC02046362100F04CFF012DBB680FD00122D7
S1130AD09A4020EA0202204692B2362100F04AFFF0
S1130AE02046B2B23021BDE8F84000F043BF9D403B
S1130AF040EA0502EFE700BFE9B138B5CB68012B46
S1130B000C4605460DD9022B17D028462146002253
S1130B10FFF7C8FF284621460022FFF749FFFF20C0
S1130B2038BD00F02FFC831E032BEED8DFE803F062
S1130B301408080238BDFF20704700F073FBF2E789
S1130B40284621460022FFF7ADFF28462146012210
S1130B50FFF72EFF002038BD284621460122FFF76B
S1130B60A1FF002038BD00BFCB68012B70B50C4637
S1130B7005462FD01ED3022B0BD004240021284677
S1130B8000F0EEFE2846042100F0EAFE013CF5D117
S1130B9070BD2021164600F0E3FEA26820F44260F6
S1130BA020F00F003243024392B22846202100F085
S1130BB0E1FEE2E7282100F0D3FEA36820F44060C0
S1130BC020F00F0040EA030292B22846282100F0E8
S1130BD0D1FED2E72C2100F0C3FEA36820F44060CC
S1130BE020F00F0040EA030292B228462C2100F0C4
S1130BF0C1FEC2E738B58B680C463BB95C2100F0F6
S1130C00AFFEC30510D54FF4807038BD054664218E
S1130C100F2200F09DFE28466421228900F0AAFEDE
S1130C2028465C2100F09CFEA36AD86938BD00BF49
S1130C302DE9F0474D692C2325F0800503FB0503BE
S1130C4004465A68D60702D51420BDE8F0870F463B
S1130C50194642F0010241F8042FB960DF62BA6913
S1130C6002F00302022A6ED0032A05D0002A00F003
S1130C709380FF20BDE8F08700F5E8794FF006087F
S1130C800426204664211FFA88F200F073FE2046F1
S1130C90682159F804AF00F063FEC0F3813050EAD4
S1130CA00A0300F093800136072E08F10108E8D109
S1130CB04FF000082C2303FB054300225E629A6276
S1130CC04FF400462C2202FB05420832C2F804808D
S1130CD07B691B066CD5002393602C2303FB05451D
S1130CE0083569687B69373113F0800F4FF00002D3
S1130CF04FEA4101204614BF4FF01009914600F01D
S1130D0033FEEFF3108872B66421AA88204600F0FF
S1130D1031FE7B6903F00F0242F08002324349EA5C
S1130D2002022046682100F025FE2046BA8B6C2181
S1130D3000F020FE88F310882046394600F0A4F81D
S1130D400020BDE8F087164600F5DE794FF0010873
S1130D50204664211FFA88F200F00CFE2046682128
S1130D6059F804AF00F0FCFDC0F3813050EA0A03E7
S1130D700CD12C2303FB054308214FEAC802C9F810
S1130D8000504FF4804699625A629BE7062E12D0B7
S1130D90013608F10108DBE75A62F969DA600226D4
S1130DA0890999621E61BA8B5E2100F0E3FDC3E7F5
S1130DB00123936091E72C2303FB054300220821C0
S1130DC099625A6290464FF480467BE704EB8803AD
S1130DD0C3F8BC516EE700BFF8B58C686421228962
S1130DE0054600F0C7FDA16800293ED001F16E035D
S1130DF005EB83030026373149005E6032462846FE
S1130E0000F0B2FDA368012707FA03F292B2284664
S1130E104A2100F09DFDA36807FA03F292B2284626
S1130E20462100F095FDA36807FA03F292B2284622
S1130E30482100F08DFD284621463246FFF732FE58
S1130E40284621463246FFF7B3FD2846214632465E
S1130E50FFF7D8FD284622214FF4804200F08AFD96
S1130E6028466821228900F085FD00202060F8BD15
S1130E70896821B137314900032200F069BD60213E
S1130E80032200F065BD00BF71B338B58D68A96851
S1130E900446F1B137314900032200F059FDA96835
S1130EA03731490020464FF4807200F05DFD204642
S1130EB022214FF4804200F05DFD204622214FF4B0
S1130EC0804200F045FD2B6823F004032B600020D2
S1130ED038BD6021032200F03BFD204660214FF421
S1130EE0807200F041FDEEE71420704799B110B50F
S1130EF08C68A16851B137314900022200F034FDF9
S1130F00236843F004032360002010BD6021022203
S1130F1000F02AFDF4E71420704700BF2C2303FBE4
S1130F2001014868C3074CBFC0F38000FF2070472D
S1130F3038B50C460546FFF717FEE368012B0FD0C2
S1130F4009D3022B05D12846222100F009FD830490
S1130F5000D4FF2038BD28462A2100F001FDF6E721
S1130F6028462E2100F0FCFCF1E700BF4368CBB11A
S1130F7010B4027B042A83B015D00A88002B92B2E5
S1130F8001920CDD036801A9002211F8014B1C70C9
S1130F9090E818000132013394420360F5DC03B099
S1130FA05DF8044B70470A680192002BF7DD036873
S1130FB001A9002211F8014B1C7090E818000132BD
S1130FC00133A2420360F5DB03B05DF8044BE9E7AB
S1130FD02DE9F043CB68D0F8E061012B87B00D46D2
S1130FE007465AD053D34FF0220814364FF0200945
S1130FF0384629460022FFF79BFFFF2802D107B09D
S1131000BDE8F083AA6AC0F30B03D469AB61384628
S113101029460393FFF72CFF2B69039A934242D38B
S1131020002A4ED0B2FBF4F304FB1324002C134625
S113103014BF04240224D7F8F011EA69029211B112
S1131040E968012953D9D2073DD45D08A3EB4503D0
S11310504FF0020E494638464FF4806204950393DC
S11310608DF814E000F080FC049D5DB102982B46DD
S11310700246318822F8021B013BFAD100EB4500FD
S113108002900493314602A8FFF770FF0FE04FF07F
S11310902A0818364FF02809AAE74FF02E081C3604
S11310A04FF02C09A4E703930724002BC3D138463F
S11310B041464FF4804200F05DFC204607B0BDE895
S11310C0F0830424F3E749463846002200F04CFC40
S11310D0039B002BEBD0029B32781A70029B039A7D
S11310E00133013A02930392002AF5D1DFE712F0AB
S11310F0010FD7F808223DD001218DF81410D078C3
S113110004936FF305109BB2D070D38149463846DF
S1131110002200F029FC049B002BB3D0D7F808323E
S1131120D7F8F021D9789568DB891068029A4FF0D6
S1131130010EC1F301118DE802409BB231466D6A84
S1131140A847D7F8F0319A681868136900219847BE
S113115002A90EC99DF8140003FB00F31944D31A25
S11311600291039397F81D32002BFBD0002387F8DC
S11311701D3287E702218DF81410D0785B08012115
S113118061F305109DB20493D581D0704946384669
S11311904FF4806200F0E8FBBDE700BFF8B51546E8
S11311A00A68D2070C4629D44A685608A2EB4602BC
S11311B002276260A660194627734FF4806200F02C
S11311C0D3FBA6685EB120683346024632F8021BA0
S11311D02980013BFAD100EB46002060A3606368DC
S11311E0F3B123681B7805F8013923686268013379
S11311F0013A23606260002AF4D1F8BD1946002246
S113120000F0B2FB636853B123681B782B7023682A
S113121062680133013A23606260002AF5D1F8BDA7
S1131220F8BD00BF70B58B6884B00D46064633B96F
S11312302022FFF77DFEFF2806D104B070BD0022F6
S1131240FFF776FEFF28F8D030462946FFF7D2FC98
S1131250AA6A2B69D2699A4204461ED3019363B3E6
S1131260B3FBF2F102FB1132002A14BF042403245D
S113127004A9EA6941F8102DD6F8E0216B61143213
S113128020233046FFF78AFF3046222100F068FB16
S1131290030414D5204604B070BDD6F8E021EB69F0
S11312A0686104A9304641F8103D143220230194AA
S11312B0FFF774FF022004B070BD0424D8E7304661
S11312C022214FF4004200F055FB2046B5E700BF51
S11312D0FFF764BF43685BB103681B7801F8013909
S11312E0036842680133013A03604260002AF4D182
S11312F0704700BFF0B40C68E4070B4610D5012416
S11313001C73D0F8F4515C68EE789C606FF305169A
S1131310A4B21146EE70EC810022F0BC00F024BBB4
S113132002241C73D0F8F4515C68EE780121CC409F
S113133061F30516A7B29C601146EE70EF814FF47D
S11313408062F0BC00F010BBF0B5D0F8F431044674
S1131350DD78D0F8EC01DB898668006883B001276A
S1131360C5F30115019700959BB2756AA847D4F897
S1131370EC319A6818681369002103B0BDE8F040A5
S1131380184700BF2DE9F043002285B005460E46FC
S1131390FFF7CEFDFF2802D105B0BDE8F083284653
S11313A03146FFF727FCB36A3769DB69BB422CD2AD
S11313B0019007460224F368D5F8E021002B37D1C9
S11313C0282302F118084FF02A09D5F8EC21F16915
S11313D077610091002A4AD01A4669462846FFF7E9
S11313E089FF029B63BB68464146D5F8E021FFF7BD
S11313F071FF022C05D02846494600F0B1FA0304D7
S11314000ED5204605B0BDE8F0830197B7B1B7FB10
S1131410F3F203FB1273002B14BF04240324CAE762
S1131420284649464FF4004200F09EFA2046B3E7AE
S11314302C2302F11C084FF02E09C6E70424BAE756
S1131440284600994246FFF77FFF9DE807009DF874
S11314500C3002FB03F31844CB1A8DE8090095F80D
S11314601C32002BFBD0002385F81C32BBE742461C
S113147028466946FFF72CFFBBE700BF10B50C46B2
S11314804C2100F06DFAC0F30A002060002010BD6A
S1131490036A0BB955207047A1F10A03C06B0B2BEB
S11314A01ED8DFE803F00E1D111D14171A061D06C1
S11314B00B08002070471146FFF730BD1146FFF7B7
S11314C015BD1146FFF7DABF114600F0CFBB114638
S11314D0FFF7AEBB1146FFF77FBC1146FFF7D4BC44
S11314E05420704738B5094B1C68D4F80C510021BE
S11314F02846012200F038FA284630214FF41F42D2
S113150000F032FA0123C4F8F03038BDB45D002095
S113151070B53D4A82B00023332190420093019379
S11315208DF8001007D00220014632220AF080FE16
S1131530322002B070BD684603F002FD334B01AAAD
S11315401B696846022198479DF804305AB212F18B
S1131550210F12D0002A4EDB02F1604101F56141F6
S11315601020DBB281F8000303F01F0352090121AC
S1131570274801FA03F340F82230264B1D68002067
S11315808023C5F8F43001464FF408720AF0ECFEEB
S1131590044670B31C4B204EC5F80C0105F1D00273
S11315A0C5F8003100210260C0F8E0314FF48062D8
S11315B0C5F8086100F0D8F92046002100F0D0F900
S11315C04305F9D520460021012200F0C1F9204647
S11315D00021402200F0BCF920460021102200F036
S11315E0C3F920460021082200F0B2F9002002B01D
S11315F070BD12209DE7DBB2084903F00F000144DF
S113160010200876B0E700BF000009408CE4000019
S113161000E100E0B45D002091140000FCEC00E067
S113162000B583B0FFF774FF18B90190FFF75AFFB4
S1131630019803B05DF804FB70B51F4D1F492C6879
S1131640D4F89433012B07BFD4F82003D4F82433FF
S1131650D4F82803D4F82C33C4F81803C4F81C3382
S11316600E2204F506730AF04BFE4FF47A72D4F896
S11316703032D4F88C12C4F8C82204F1D00604F530
S11316801472C4F89012C4F88822C4F86C32C4F8F6
S113169094320E21D4F80831304698472B68D3F899
S11316A0B43300210222C4F85412C4F8A4220BB1AA
S11316B001209847002070BDB45D00209C010020EB
S11316C02DE9F84FDFF88482D8F80090D9F80C415E
S11316D04021204600F044F9430407460CD5D8F8CD
S11316E00030D3F8B4330BB105209847204640218D
S11316F04BF6FF7200F03EF93E0400F1BF80FD049A
S113170000F1A980780576D4F90545D4BA0514D436
S11317103B0501D4BDE8F88FE16A07F007033031D7
S113172020464FF4006200F029F9204640214FF290
S1131730FF72BDE8F84F00F01DB94821204600F0C3
S11317400FF938218146204600F00AF904F5DE76C7
S1131750824604F5F27801254FF02C0B04E00436A0
S113176046454FEA4505D3D015EA090FF7D015EAE7
S11317700A0FF4D0EA43204692B2482100F0FAF866
S113178033680BFB03432046D96A4FF400723031AF
S1131790002300F0F3F8E2E74621204600F0E0F8E9
S11317A036218146204600F0DBF804F5DE768246D9
S11317B004F5F27801254FF02C0B04E0043646457D
S11317C04FEA4505A2D015EA090FF7D015EA0A0F2A
S11317D0F4D0EA43204692B2462100F0CBF83368B5
S11317E00BFB03432046D96A4FF480723031002347
S11317F000F0C4F8E2E74A21204600F0B1F83A21AB
S11318008146204600F0ACF804F5DE76824604F505
S1131810F27801254FF02C0B05E0043646454FEADB
S113182045053FF471AF15EA090FF6D015EA0A0F22
S1131830F3D0EA43204692B24A2100F09BF8336881
S11318400BFB03432046D96A4FF4806230310023F6
S113185000F094F8E1E7204640214EF6FF7200F0D4
S113186089F807F07003102B46D033D9202B5AD0B7
S1131870302B32D10323C4F8E83143E7204640211A
S113188047F6FF7200F076F84021204600F068F831
S1131890402100F08006204600F062F80546402111
S11318A0204605F0800500F05BF8AE42ECD100F074
S11318B080008642E8D12EB120460021102200F09B
S11318C053F81CE731462046102200F041F80AF094
S11318D09DFA14E7002B3FF415AFD8F80030D3F885
S11318E0B4330BB104209847D9F81432002B3FF4D9
S11318F009AF0AF08BFA05E72046082100F030F81A
S113190000F00700022815D0032819D0012804D1BB
S1131910D8F800300022C3F89423FFF78DFE01238A
S1131920C9F81432EEE62046502100F019F8C9F83F
S11319300401E7E6D8F800300122C3F89423ECE769
S1131940D8F800300222C3F89423E6E7B45D0020FF
S1131950D0F8E0010B5A23EA02020A52704700BF92
S1131960D0F8E031C85A7047D0F8E0010B5A1A4356
S11319700A527047D0F8E031CA5270472DE9F04757
S11319808F68B2F5006F0C46BD68064627D0B2F5E5
S1131990807F05D0B2F5806F02D00020BDE8F087CB
S11319A0636A022B00F0CB80E269002A40F0A08039
S11319B0E76C012F00F01681226230462946FEF7BB
S11319C0F7FFAB68002B40F021816A68012A00F020
S11319D04181A36A002BE0D020469847DDE7062B1F
S11319E0DBD04FF6F7724021FFF7C4FF5421304695
S11319F0FFF7B6FF81B204F150000AF019FE562138
S1131A003046FFF7ADFF81B204F152000AF010FE38
S1131A1058213046FFF7A4FF81B204F154000AF0C4
S1131A2007FE5A213046FFF79BFF04F1560981B2A5
S1131A3048460AF0FDFD94F9503000274FF00108A4
S1131A40BB42A7612762C4F80480C0F29080B4F856
S1131A505630002B00F08B804FF0020A4846C4F841
S1131A6024A00AF0DFFDE368606123613046602151
S1131A700322A761FFF76CFFAB6808FA03F292B286
S1131A8030464A21FFF764FFAB6808FA03F292B2CA
S1131A9030464621FFF75CFF304622214FF4804256
S1131AA0FFF768FF30462A214FF48042FFF762FFB8
S1131AB0304629463A46FFF757F83046294642460B
S1131AC0FEF7F0FF304642466021FFF74DFFC5F8B0
S1131AD004A094F95030002BC0F29580B4F856302D
S1131AE0002B00F09A8002236B600020BDE8F08791
S1131AF0FB692169E961934228BF13466B6129465A
S1131B0030469846FEF7F8FF2F692169E369A26918
S1131B10C8EB07074144C8EB03034244FF282F6185
S1131B202161E361A2613FF438AFA968002953D071
S1131B303731490030460122FFF716FF2DE763696C
S1131B40FA692B619342236988BF2A61EB613046AD
S1131B502946FEF781FF70B1AB68002B3FF41DAF3F
S1131B602046232340F82C3B0AF05AFD15E7204673
S1131B7009F04EFFADE7A969E269A3692069521A29
S1131B80E26162690B44084493422061A36102D07C
S1131B90FB698B4253D00022226230462946FEF76D
S1131BA081FFAB6893BB6B68022B7FF4F6AE2046D3
S1131BB009F02EFFA36A03226A600BB120469847FE
S1131BC000220323E26162616362304660216B603C
S1131BD00522FFF7C9FEE0E6304660210122FFF747
S1131BE0C3FEDAE62A6130462946FEF785FFFF2860
S1131BF006D0A968E1B930463A466021FFF7B4FE41
S1131C000023E364C9E601236B60C6E62046022391
S1131C1040F82C3B0AF004FDBFE603226262E36154
S1131C20636130466A6060210522FFF79DFEB4E6D9
S1131C303731490030463A46FFF796FEE0E7AB6895
S1131C40002BC9D003F13701490030460122FFF7C8
S1131C508BFEA2E603226262E361636130466A603E
S1131C6060210522FFF780FEB3E600BF2DE9F047AF
S1131C708F68D7F808900D46D9F808100446002953
S1131C803ED160210322FFF763FED9F80830012614
S1131C9006FA03F292B220464A21FFF759FED9F818
S1131CA0083006FA03F292B220464621FFF750FEAE
S1131CB06B6A032B55D0204649460022FEF754FF99
S1131CC0204622214FF48042FFF754FE20462A2169
S1131CD04FF48042FFF74EFE494620463246FEF757
S1131CE0E1FED9F8081019B33731490020463246CD
S1131CF0FFF73AFED9F808301BBB0020BDE8F08797
S1131D0037314900FFF72CFE420408D5D9F80810F2
S1131D10373149002046FFF723FE4304F6D4D9F8AF
S1131D2008103731490020460322FFF711FEACE7C3
S1131D30204632466021FFF717FED9F80830002B01
S1131D40DBD005F12C004FF0FF310AF067FC30B90D
S1131D50286A20B92B68232B0CBF23200020BDE860
S1131D60F087EB68D5F814A0FF69C9F81C30204649
S1131D7049462022C9F810A0FEF7F6FE204622218B
S1131D804FF48042FFF7F6FD20462A214FF48042AB
S1131D90FFF7F0FDEB68C9F81C3020464946FEF712
S1131DA0ABFEFF281BD0574528BF5746B8462869C5
S1131DB0D9F81070AA69EB69D9F80810C8EB0707BD
S1131DC040444244C8EB0303C9F810702861AA6177
S1131DD0EB6199B9204632466021FFF7C5FDD9F879
S1131DE00830002B89D005F12C004FF0FF310AF0A8
S1131DF015FC0028B3D1286ABDE8F08737314900C3
S1131E0020463246FFF7B0FDD9F80830002B3FF4E6
S1131E1074AFE8E72DE9F047D34E33681B69AC246F
S1131E2004FB0034636B53B9D4F8A850226BD5F883
S1131E30C430012A03F10103C5F8C43001D0BDE860
S1131E40F0873021284600F0CFF932218046284619
S1131E5000F0CAF940210746284600F0C5F900EA17
S1131E600800C5F8C8004221284600F0BDF9D5F89D
S1131E70C83038409F04C5F8CC0000F162810004EA
S1131E8000F15381D5F8C830590500F12081DA05F5
S1131E9000F1EF809B0500F1C080D5F8CC301F0520
S1131EA079D4D80463D4590434D4DA0619D49B06FB
S1131EB0C5D528464FF6DF72422100F09FF9D5F8C8
S1131EC0D820D4F88C30306842F020020133C5F8B1
S1131ED0D82000F51B70C4F88C30BDE8F0470AF038
S1131EE09FBB284642214FF6EF7200F087F9D5F8E0
S1131EF0D820D4F88C303068013342F04002C5F861
S1131F00D82000F51B70C4F88C300AF089FBD5F892
S1131F10CC30CCE7284642214BF6FF7200F06EF934
S1131F20D5F8D07007BB2B69012B1DD02846322170
S1131F304FF4804200F052F9284632214FF4805287
S1131F4000F056F9636C01210B4463642846C5F81C
S1131F50D0103A465E2100F04BF930684FF0FF3361
S1131F60E430AB610AF05CFBD5F8CC309DE7284641
S1131F7042214EF6FF7200F041F9284642214FF209
S1131F80FF7200F03BF9D5F8D030012B00F0F1805E
S1131F90D5F8CC3087E7284642214FF2FF7200F093
S1131FA02DF94EF6FF722846422100F027F904214C
S1131FB0284600F019F910F0020F4FF03C012846B2
S1131FC04FF4807200F0D28000F012F9D5F8D0708E
S1131FD007BB2B69012B1DD0284632214FF4006228
S1131FE000F0FCF8284632214FF4805200F000F94A
S1131FF0636C01210B4463642846C5F8D0103A464B
S11320005E2100F0F5F830684FF0FF33E430AB6147
S11320100AF006FBD5F8CC3043E72846482100F007
S1132020E3F805F1D807824605F580794FF00108F9
S11320306FEA080218EA0A0F28464FF0480192B2E4
S11320404FEA480807D0BB6A1BB13B6843F0020360
S11320503B6000F0D3F804374F45E9D1D4F88C3015
S113206030680133C4F88C3000F51B700AF0D8FADC
S113207013E72846462100F0B7F805F1D807824651
S113208005F580794FF001086FEA080218EA0A0F93
S113209028464FF0460192B24FEA480807D0BB6A7F
S11320A01BB13B6843F001033B6000F0A7F8043721
S11320B04F45E9D1D4F88C3030680133C4F88C3002
S11320C000F51B700AF0ACFAD5F8C830E2E62846F1
S11320D04A2100F089F805F1D807824605F5807990
S11320E04FF001086FEA080218EA0A0F28464FF079
S11320F04A0192B24FEA480807D0BB6A1BB13B6859
S113210043F004033B6000F079F804374F45E9D10C
S1132110D4F88C3030680133C4F88C3000F51B706F
S11321200AF07EFAD5F8C830B1E62846422147F6CF
S1132130FF7200F063F80120014643220AF078F8A8
S1132140A0E6284640214DF6FF7200F057F8D4F877
S11321508C3030680133C4F88C3000F51B700AF001
S11321605FFAD5F8CC008AE6B85D002000F036F8B6
S11321702CE72B69012B7FF40BAF284632214FF457
S1132180805200F02BF8322128464FF4006200F010
S11321902FF805F1FC0305F5927153F8042F2AB1C9
S11321A053F8282C42F0800243F8282C8B42F4D1B7
S11321B0D4F88C3030680133C4F88C3000F51B70CF
S11321C00AF02EFA636C3068002201336364E43051
S11321D0C5F8D0202A610AF023FAD9E640680B5AE0
S11321E023EA02020A5270474368C85A704700BF84
S11321F040680B5A1A430A52704700BF4368CA52D8
S1132200704700BF70B4104C2368020A9A4216D279
S11322106568C0B200F11006012355F8225003FA94
S113222006F62E420BD069B100EB0210A36853F8F6
S11322302030C3F3400300200B7070BC70470320B0
S113224070BC70471846FBE77C020020084B1A68F4
S1132250000A904201D30320704731B1DA68430188
S1132260043200209B580B8070470120704700BF48
S11322707C020020084B1A68000A904201D3032014
S1132280704739B1DA684301043200209B581B0CB3
S11322900B807047012070477C020020144A1368A9
S11322A0F0B4040A9C421DD25768C5B205F1100669
S11322B0012357F8244003FA06F6264212D0A1B1AE
S11322C0D468000A0434400103FA05F2005992B2BA
S11322D002EA1040904213BF002000200B700870E7
S11322E0F0BC70470320F0BC70471846FBE700BF02
S11322F07C0200200C4B10B41C68000AA04200D2DF
S11323001AB903205DF8044B7047DB685DF8044B91
S1132310083303EB401022EA0103114041EA034170
S113232041600020704700BF7C020020134BF0B4D2
S11323301C68020AA2420AD25F68C5B205F11006FF
S1132340012457F8222004FA06F6164202D103208B
S1132350F0BC70470129FAD800F47F400AD0AC40A1
S113236024040021DB68083303EBD0000C434460F1
S11323700020EDE7A94089B20024F3E77C020020A5
S113238040B101230421022201704370C3708270A2
S11323900020704701207047012901D903207047AC
S11323A02C4BF0B51C68020AA2424ED25D68C0B242
S11323B000F11006012455F82250B4402C4244D0B8
S11323C000EB02109C681D6954F8203000293ED0AF
S11323D043F00401204E0E40EFF31087012383F3F2
S11323E010881E4B1A8892B222B94FF0400EEA7040
S11323F085F803E01A88013292B21A8087F31088B4
S1132400CF0354F8202007D5154F22F480320F4013
S113241044F8202044F8207044F82060EFF3108141
S1132420012282F310881A880C4892B21AB10288E9
S1132430013A92B202801B889BB213B98022EB70DE
S1132440EA7081F310880020F0BD0320F0BD23F072
S11324500401BFE77C020020D5FC011FD402002048
S1132460D5FC001F0AB9032070470B4B10B41C683D
S1132470000AA04203D303205DF8044B7047DB68D5
S113248022EA0104400108330A4042EA0442C250ED
S11324905DF8044B002070477C0200200AB9032039
S11324A070470D4B70B41C68000AA04202D303208D
S11324B070BC70474001DD682E582B5802EA0104B5
S11324C03443A4B261EA02021B0C22401B041A43E7
S11324D02A50002070BC70477C0200202DE9F04196
S11324E0002839D009681E4D002701EBC000B8460A
S11324F04FF0010E8C88002335F81320A24218D027
S11325000133032BF8D108318142F3D1FF43FFB2E9
S1132510012002F005FE134A92F8BB3448EA03088E
S113252008EA070782F8BB740120BDE8F04102F015
S1132530C7BD0A6802F0B852B2F1807F05D00EFA26
S113254003F647EA0602D7B2DAE70EFA03F248EADC
S113255002085FFA88F8D3E78046FF27D8E700BF70
S1132560FCE3000000E0014070B582B002AB00243F
S113257003F8044D054618460E4602F06BFB9DF821
S11325800430DB0702D4062002B070BD202D02D92E
S1132590032002B070BD012EFAD8084B1A691378D3
S11325A005D02B4303F0300320461370ECE703F00F
S11325B0300323EA050520461570E5E77C02002078
S11325C0002867D02DE9F84F4368002B5FD00146FF
S11325D0804631F8040BFFF781FFB8F80030002B78
S11325E052D02D4CDFF8B4E0A146002201204FF078
S11325F0400B4FF0800AD8F80430DEF8107053F81E
S11326003260DEF8085003EBC20399880B0AC9B2A2
S113261001EB0313EFF3108C80F31088218889B247
S113262011B9F97087F803B02188013189B221808A
S11326308CF3108816F4803F55F8231007D021F44A
S1132640803126F4803C45F8231045F823C045F832
S11326502360EFF3108180F3108823889BB22BB1A1
S1132660B9F80030013B9BB2A9F8003023889BB233
S113267013B9FB7087F803A081F310880132B8F80E
S1132680003092B29342B6D80020BDE8F88F012002
S1132690BDE8F88F01207047D40200207C0200209E
S11326A0002832D04368002B2FD0F0B587B006AC99
S11326B0002309210193164A04F8141D154ED76806
S11326C00293054603930493059302A92046B84751
S11326D04FF00A0C029ABDF80C308DF804C002A920
S11326E0F2602046059A72603360B8470122029B6B
S11326F08DF8052002A92046B360B847029B3361D8
S11327002846FFF75DFF07B0F0BD0120704700BF0A
S11327108CE400007C0200202DE9F041304C22685A
S1132720050A954284B003460CD26268C6B20F46CD
S11327304FF0010806F1100152F8252008FA01F1C2
S1132740114203D1032004B0BDE8F08104A902AA18
S113275041F80C2D4046ADF80C300297ADF80080DE
S113276006EB0515FFF7BAFE2069A268EFF31084A3
S113277088F310881B490B889BB213B94026C37099
S1132780C6700B8801339BB20B8084F31088FC0362
S113279052F8253007D523F4803327F4803442F8E7
S11327A0253042F8254042F82570EFF310820123CA
S11327B083F310880B880B4C9BB25BB90B889BB2DC
S11327C013B98021C370C17082F31088002004B053
S11327D0BDE8F0812388013B9BB22380EEE700BF74
S11327E07C020020D4020020012901D90320704773
S11327F02C4BF0B51C68020AA2424ED25D68C0B2EE
S113280000F11006012455F82250B4402C4244D063
S113281000EB02109C681D6954F8203001293ED059
S113282023F00101204E0E40EFF31087012383F3C0
S113283010881E4B1A8892B222B94FF0400EEA70EB
S113284085F803E01A88013292B21A8087F310885F
S1132850CF0354F8202007D5154F22F480320F40BF
S113286044F8202044F8207044F82060EFF31081ED
S1132870012282F310881A880C4892B21AB1028895
S1132880013A92B202801B889BB213B98022EB708A
S1132890EA7081F310880020F0BD0320F0BD43F0FE
S11328A00101BFE77C020020D5FC011FD4020020F7
S11328B0D5FC001F024658B1064B07491B68002B84
S11328C008BF0B460020596803EB8103136070476F
S11328D00120704790020020ACE5000088B10A4B4B
S11328E01B6863B15A6800F1100103EB820353F8CB
S11328F0042F40F8042B8842F9D1002070471C2093
S113290070470120704700BF9002002070B36AB383
S1132910174BF0B51E681EB3164B07781B680024CE
S113292004E00134B44203F1080319D09D79BD4297
S1132930F7D193F805E04588B5EB9E0FF1D1DD7929
S113294090F801E005F00F0CF445EAD1B1EB151F46
S1132950E7D19B881470C3F3090353800020F0BDB2
S1132960DF21FF23117053800B20F0BD012070473D
S11329701003002004EA000020B1034B1B6803602D
S11329800020704701207047A4E4000070B42A4C72
S1132990216851B1234604F57F70002201E053F809
S11329A0041F83420A44FAD11AB100BE1D2070BC30
S11329B07047224D22482A600368190CB1F5807FC4
S11329C002D0002070BC7047196801390331F8D86F
S11329D01C495E6A8E42F4D12B60016863684868C2
S11329E004EB830301EB800101F123002333012174
S11329F04FF47E4503E0013201310138013B25FAF1
S1132A0002F4E40707D5072A10D0082A07D01E7855
S1132A100478A642C9D11029EDD10020D2E7047868
S1132A20372CE8D01E78A642E5D0BEE706781C789D
S1132A30A642E0D2B9E700BFACE500009002002056
S1132A409CB17F405237465300285ED000295CD0A9
S1132A508B4B2DE9F0439A6890F800C003EB820297
S1132A609478A44537D24FEA1C1802EB88060CF080
S1132A700F073589D2F804E025FA07F919F0010F98
S1132A8029D0072FB67A09D902EB88080CF007077A
S1132A9098F80BC00CF00F0C66442D0ADFF8E481A3
S1132AA0DFF8E4C118F80780754F08EA0505240922
S1132AB01CF80550023402EB8402AC1902EB440505
S1132AC032F814206C78C2F30902250603EB820362
S1132AD005D4002B4BD14FF4AF60BDE8F08317F859
S1132AE0222045785208FDB14FF0020E012604273A
S1132AF01C78E40705F1FF3552D5052A00F2BE80A3
S1132B00DFE802F0332D211C1A05012070479A7862
S1132B101EFB0264033204EB9202920013441A78FF
S1132B2054082246002DE3D1042A00F2A480DFE8F1
S1132B3002F0636363503B000822EFE79A7817FBC7
S1132B4002629200EAE793F804C09C7814FB0CF24A
S1132B50D41C0CF1030204EB92029200DEE71A7912
S1132B60033222F003020C32D8E70C22D6E7447871
S1132B70B4B9DC78C4F303144C72DC780125C4F3D3
S1132B8003048C728D804088002843D137F82220BA
S1132B900EEB02220A609B78CB800872C86015E0B5
S1132BA040F27950BDE8F083DA78C2F303124A7236
S1132BB0DA78C2F303028A725878C88000228A80C5
S1132BC00A72CA605B680B608307E9D50020BDE820
S1132BD0F083DA78C2F303124A72DA78C2F303029A
S1132BE08A725A78CA809A788A8004330420002230
S1132BF0CB6008720A60E9E7DC78C4F303144C7212
S1132C00DC78C4F303048C721D79ACB28C804088E8
S1132C10844203D840F27A50BDE8F083DC889E6891
S1132C20012A04FB00640C601CD0022A0AD09C78A0
S1132C305B78002243EA0424CC800A72CA60002C28
S1132C40E8D0C3E71C18EA1C247BCC809D780D7265
S1132C50920805FB002003EB80030C33CB60002CAF
S1132C60D8D0B3E7034400221C7BCC800A72CA602C
S1132C70002CCFD0AAE76420BDE8F08300224DE702
S1132C80ACE5000004E400000CE40000034B043055
S1132C901B6823F820100020704700BFD8020020D2
S1132CA0034B021D1B68002023F82200704700BF5D
S1132CB0D8020020034B1A68137863F07F03137063
S1132CC000207047D8020020034B1A68137803F0E1
S1132CD07F03137000207047D802002020B1034BFB
S1132CE01B6803600020704701207047C4E40000A3
S1132CF060B1012808D1094B1B6800204021412202
S1132D00187119711A71704701207047034B1B68C1
S1132D1040214122987099709A707047D80200201F
S1132D20002836D070B51C4986B000230B220193CD
S1132D3002930393049305930546CB688DF804200E
S1132D4001A802A99847044608B106B070BD134E05
S1132D50029B336001A802F0F3F86B6873B130682A
S1132D602346AA6812F8231002EB83020431528826
S1132D7020F821206A6801339A42F2D82878002882
S1132D80E3D032681378002063F07F03137006B039
S1132D9070BD0120704700BF8CE40000D802002001
S1132DA0094A0A4B12680A48916910B4D469196037
S1132DB04FF400420021DC60586059619A601A6146
S1132DC05DF8044B704700BFAC0200209402002061
S1132DD000127A00374B1B6893F8283013F0300246
S1132DE03DD0102A0DD0202A3AD0DFED337A334A71
S1132DF0F0EE676A67EEA67AFCEEE77AC2ED057A32
S1132E007047028D2E4902F0030231F81210002996
S1132E104CD05B0610B44AD5038D13F0100F0CBFD1
S1132E2003240024254A038D52F824005DF8044B42
S1132E3007EE900AB8EE677A07EE901AB8EE676A62
S1132E40C3F30523C7EE067A013306EE903AFAEE91
S1132E50EF6A67EEA67AFCEEE77AC2ED057A704770
S1132E6090F82B30174A9B0932F813100029F6D03A
S1132E70124A90F82B30D2ED037A03F01F03B8EE18
S1132E80677A06EE903A07EE901AF8EE666AB8EEA4
S1132E90676AF7EE007A76EEA76AC7EE067A67EEFF
S1132EA0A67AFCEEE77AC2ED057A704770470324F0
S1132EB0B8E700BFAC02002000000000940200202C
S1132EC0D0E40000C8E40000F8B50D4B1B680646CA
S1132ED093F8205093F8217000200C4602F020F95A
S1132EE096F81324E9B2BC400C4022EA010344EAF8
S1132EF0030186F813140020BDE8F84002F0E0B89E
S1132F00AC020020F8B50D4B1B68064693F822501E
S1132F1093F8237000200C4602F002F996F88124FD
S1132F20E9B2BC400C4022EA010344EA030186F8FA
S1132F3081140020BDE8F84002F0C2B8AC020020C1
S1132F4038B505460C46002002F0EAF8052C0AD8EC
S1132F50DFE804F019242F033A0E95F8323023F0F9
S1132F60010385F832300020BDE8384002F0A8B8EB
S1132F7095F82A3023F0010385F82A300020BDE8B3
S1132F80384002F09DB895F8363023F0010385F8F7
S1132F9036300020BDE8384002F092B895F8383059
S1132FA023F0010385F838300020BDE8384002F0F2
S1132FB087B895F8903423F0010385F89034002005
S1132FC0BDE8384002F07CB895F8803423F0010362
S1132FD085F880340020BDE8384002F071B800BFA5
S1132FE038B505460C46002002F09AF8052C0AD89C
S1132FF0DFE804F019242F033A0E95F8323043F039
S1133000010385F832300020BDE8384002F058B89A
S113301095F82A3043F0010385F82A300020BDE8F2
S1133020384002F04DB895F8363043F0010385F886
S113303036300020BDE8384002F042B895F8383008
S113304043F0010385F838300020BDE8384002F031
S113305037B895F8903443F0010385F89034002094
S1133060BDE8384002F02CB895F8803443F00103F1
S113307085F880340020BDE8384002F021B800BF54
S113308003290ED0052907D009B10020704790F814
S11330903C0000F00100704790F83C00C0F3401081
S11330A0704790F83C00C0F3C000704705292ED843
S11330B0DFE801F00A11181F260390F82A0000F037
S11330C0010080F00100704790F8360000F0010024
S11330D080F00100704790F8380000F0010080F0A3
S11330E00100704790F8900400F0010080F00100A6
S11330F0704790F8320000F0010080F00100704742
S113310090F8800400F0010080F001007047002076
S1133110704700BF036A90F82630704738B50546FB
S113312000200C4601F0FCFF95F8133404F0010173
S113313023F0400343EA811185F813140020BDE80D
S1133140384001F0BDBF00BF38B505460020144625
S113315001F0E6FF95F8A22004F00F0422F00F021C
S1133160144385F8A2400020BDE8384001F0A8BF10
S1133170084B1B6893F8283013F0300F04D104284F
S11331808CBF00200120704705288CBF002001203F
S1133190704700BFAC02002006288CBF002001202D
S11331A0704700BF90F8260000F00700704700BF8A
S11331B038B5054600200C4601F0B2FF95F82610FC
S11331C004F0070421F007010C4385F82640002091
S11331D0BDE8384001F074BF074B1B6893F82830F2
S11331E05B0601D403207047038D13F0100F0CBF4E
S11331F003200020704700BFAC02002038B504460D
S113320000200D4601F08CFF238D032D0CBF23F00D
S1133210100343F0100323850020BDE8384001F07B
S11332204FBF00BF38B5224C2DED028B236893F8B5
S1133230283003F03003102B0546B0EE408A1CD032
S1133240202B02D0BDEC028B38BD002001F068FFBA
S1133250FCEEC87A95F82B1017EE903A013B03F078
S11332601F0221F01F03134385F82B30BDEC028BA2
S11332700020BDE8384001F023BF002001F050FFDA
S113328078EE087A2A8DFCEEE77A22F47C5217EE67
S1133290903A013B03F03F0342EA03232B850020CD
S11332A001F00EFF236893F8283003F03003C7E7DA
S11332B0AC02002070B51E4C236893F8283003F04C
S11332C03003102B82B0054619D0202B01D002B058
S11332D070BD184B002033F8114001F021FF95F820
S11332E02B3004F0030403F03F0343EA841300206B
S11332F085F82B3002B0BDE8704001F0E1BE0E4B02
S11333000191002033F8116001F00AFF2B8D06F0C3
S1133310030623F003031E432E85002001F0D0FE94
S11333202368019993F8283003F03003CDE700BFF8
S1133330AC020020E0E40000D8E4000038B51A4BE9
S11333401A6892F8293092F82A200546180748BFCF
S113335008784FF0000448BF60F30E34D80644BF29
S1133360487860F30A24980644BF887860F306140A
S1133370580644BFC87860F30204D20744BF0A79F0
S113338062F312441B0644BF4B7963F31E748B79BA
S1133390002063F31A6401F0C3FE2C620020BDE830
S11333A0384001F08DBE00BFAC020020036AC3F3B5
S11333B002330B70036AC3F302234B70036AC3F333
S11333C002138B70036A03F00703CB70036AC3F321
S11333D002430B71036AC3F302734B71036AC3F3B1
S11333E002638B71704700BF144B42781B6893F8DB
S11333F0241091421ED393F8262090ED017A07EE13
S1133400902AF8EE677AF4EEC77AF1EE10FA11D446
S113341093F8253007EE903AF8EE677AB4EEE77A3F
S1133420F1EE10FA06D40078032805D0B0FA80F043
S1133430400970470020704701207047AC0200200B
S1133440062921D8DFE801F0080C1014181C040028
S1133450006AC0F302607047006AC0F3023070472C
S1133460006AC0F302207047006AC0F3021070477C
S1133470006A00F007007047006AC0F3024070471A
S1133480006AC0F3027070470020704710B504460C
S1133490FFF7D6FF94F82630034A03F0070352F8E7
S11334A0233023FA00F010BD94020020024B53F89D
S11334B02000C840704700BF9402002030B5044685
S11334C083B001200D4601F02BFE02A8002300F872
S11334D0013D01F0E7FA94F8AA30D806FBD494F839
S11334E0A030D906F7D494F8AA3023F0010384F865
S11334F0AA3094F8AA30DA06FBD494F8A030DB069C
S1133500F7D4042D2BD094F8A02005F0030322F067
S11335100302134384F8A03094F8AA30D806FBD4ED
S113352094F8A030D906F7D494F8AA30042D0CBF2F
S113353043F0010323F0010384F8AA3094F8AA307D
S1133540DA06FBD494F8A030DB06F7D49DF8070024
S113355001F0BCFA012001F0B3FD03B030BD94F8D2
S1133560A03043F0030384F8A030D5E790F8AA30E4
S1133570DB075ABF90F8A00000F003000420704756
S113358010B50446002001F0CBFD94F8403063F000
S11335907F0384F8403094F8403043F0010384F80A
S11335A040300020BDE8104001F08ABD10B504464B
S11335B0002001F0B5FD94F8403023F0010384F8B5
S11335C0403094F8403003F07F0384F8403000200A
S11335D0BDE8104001F074BD90F84000C009704788
S11335E090F8410000F00100704700BF38B590F832
S11335F0413013F0010401D1002038BD05460020FC
S113360001F08EFD95F8413023F0010385F8413037
S1133610002001F055FD204638BD00BF38B50546F1
S113362000200C4601F07CFD95F8301004F00104F4
S113363021F001010C4385F830400020BDE83840FA
S113364001F03EBD10B50446002001F069FD94F878
S1133650523043F0010384F852300020BDE810409A
S113366001F02EBD10B50446002001F059FD94F878
S1133670523023F0010384F852300020BDE810409A
S113368001F01EBD70B5044600200D46164601F03B
S113369047FD94F83E3003F07F0384F83E3094F8FD
S11336A03E3006F0070223F0700343EA021284F866
S11336B03E2094F83E1005F0070521F007010D4364
S11336C084F83E500020BDE8704001F0F9BC00BF12
S11336D010B50446002001F023FD94F83E3063F059
S11336E07F0384F83E300020BDE8104001F0E8BCC0
S11336F010B50446002001F013FD94F83E3003F0A9
S11337007F0384F83E300020BDE8104001F0D8BCAF
S113371010B50446002001F003FD94F8533043F043
S1133720010384F853300020BDE8104001F0C8BC08
S113373010B50446002001F0F3FC94F8533023F054
S1133740010384F853300020BDE8104001F0B8BCF8
S113375038B5054600200C4601F0E2FC95F824300B
S113376004F0070123F0700343EA011185F82410E3
S11337700020BDE8384001F0A3BC00BF124B70B478
S11337801D681A6892071BD50021104C196094F823
S113379023200138B0F1807FD2B20DD2F026072564
S11337A002F0F002586084F8236099601D6084F888
S11337B02320012070BC70471D60084670BC704710
S11337C0012070BC704700BF10E000E000ED00E095
S11337D090F8503001F00F0123F00F03194380F8E3
S11337E05010704790F8500000F00F00704700BF71
S11337F090F8503063F07F0380F85030704700BF7A
S113380090F8503003F07F0380F85030704700BFC9
S113381090F85000C009704738B5054600200C46A2
S113382001F07EFC95F8A51004F0070421F00701CF
S11338300C4385F8A5400020BDE8384001F040BCA9
S1133840024B1B6803600020704700BF50E5000076
S113385030B52A4C87B0204601F004FA06A8284B5C
S1133860002503220095DB6800F8182D02A90295B3
S11338700395049505959847029860604FF6FF7389
S113388029460193FFF712FC28B910E0019B43B1CC
S1133890019B013B019360680021FFF7F1FB0028C5
S11338A0F4D0019B1BB94FF4CD7007B030BD6068F4
S11338B00621FFF7B1FF4FF6FF730193FFF770FA8C
S11338C060680421FFF78CFB04E0019B43B1019B7A
S11338D0013B019360680421FFF7E8FB0028F4D161
S11338E0019B002BDFD0606804210522FFF712FC46
S11338F060680021FFF706FB0020D6E7AC02002039
S11339008CE4000070B169B170B5074E044670686C
S11339100D46FFF747FC294620707068FFF746FD07
S1133920002070BD01207047AC02002070B582B049
S113393000294CD00546002846D0334C6068FFF778
S113394015FE042806463FD060686946FFF72EFD41
S113395023689A680AB1032E4AD0DA6852B3022E59
S113396028D193F829205969160703D59DF800003A
S113397088423AD3D00603D59DF80100884234D357
S1133980960603D59DF8020088422ED3500628D40B
S1133990120603D59DF805208A4226D393F82A30CF
S11339A0DB0703D59DF804308B421ED39DF8063007
S11339B08B421AD32946012001F066F96068FFF7AB
S11339C0DFFD002002B070BD012002B070BD0E4DBD
S11339D06868FFF705FE044680B14FF4CB7002B06F
S11339E070BD9DF803008842D2D2052002B070BD9C
S11339F093F8292019691007B8D4BBE76868FFF762
S1133A00D5FD2046E1E700BFAC02002038B5124CDA
S1133A106068FFF7E5FD78B16068FFF7C3FB2368D2
S1133A2093F8283013F0300F054603D05B0608D412
S1133A3005280DD0032D0BD06068FFF7D7FD0020BB
S1133A4038BD6068FFF7C8FB052DF3D10328F3D117
S1133A5040F2971038BD00BFAC02002008B5034BFC
S1133A6001465868FFF7DAFD002008BDAC020020CB
S1133A7008B5034B5868FFF7E5FD002008BD00BFFB
S1133A80AC02002008B5034B5868FFF7EBFD00209B
S1133A9008BD00BFAC02002008B5044B0A4601462D
S1133AA05868FFF7EFFD002008BD00BFAC020020FE
S1133AB008B5034B5868FFF70BFE002008BD00BF94
S1133AC0AC02002008B5034B5868FFF711FE002034
S1133AD008BD00BFAC02002038B50446FFF748FB20
S1133AE008B9032038BD631E012B11D9042C0FD053
S1133AF02CB1032C03D0052C01D0002038BD114D6E
S1133B0021466868FFF7D2FA78B94FF4C87038BD17
S1133B100C4B21465868FFF7C9FA40F2911300286C
S1133B2014BF18464FF4C87038BD68682146FFF7C3
S1133B30A7FA40F2931300280CBF18464FF4C9703B
S1133B4038BD00BFAC02002070B506464FF6FE74C7
S1133B5040F2931501E0013C0CD03046FFF7BCFF66
S1133B60A842F8D038B16FF4C873C318022B38BF19
S1133B70002070BD284670BD70B582B00D46044665
S1133B80FFF7F6FA10B9032002B070BD5C4E052CA5
S1133B902146706815D0FFF789FA18B140F29110E8
S1133BA002B070BD012C4ED9032C23D0631E012B0F
S1133BB065D9042C2BD0002C67D0032C1FD00020F7
S1133BC0E2E7FFF773FA002844D1002D39D070687A
S1133BD0FFF7E8FA0528E1D02846FFF705FC00289E
S1133BE0D1D070682978FFF761FA002854D14FF4D6
S1133BF0CA70C9E77068FFF7B9FC042828D0706858
S1133C002146FFF73DFA58B340F29310BCE7214632
S1133C107068FFF795F94FF6FF73019304E0019B79
S1133C2043B1019B013B019370680421FFF73EFA05
S1133C300028F4D0019B002B0CBF4FF4CD70002062
S1133C40A2E70120A0E77068FFF790FC0428ADD13B
S1133C50052099E77068FFF7BDF840F2911093E7EB
S1133C603368706893F82710FFF72EF97068002105
S1133C70FFF754FA706803210922FFF765FA7068A8
S1133C802146FFF75DF900207EE770682146FFF7C3
S1133C90F7F90028B8D1F2E721467068FFF7F0F988
S1133CA00028B1D1336893F828305B0603D57068D7
S1133CB02978FFF7A3FA69787068114CFFF7FAFACC
S1133CC095ED010A7068FFF7ADFA7068FFF782F8A6
S1133CD0336893F82810052001F00F01FFF7E6FB85
S1133CE033685B68984288BF0021606898BF0121EF
S1133CF0FFF7E4FB70680521FFF722F95FE700BFD7
S1133D00AC02002070B582B00446FFF731FA10B956
S1133D10032002B070BD2C4D6868FFF743FA84425B
S1133D202BD0052824D0012C2AD06868264E2146A1
S1133D30FFF7BCF9D0B1022C14D0042C29D01CB14B
S1133D40032C01D0052C11D168681F4D2146FFF7C3
S1133D5097F938B940F29310DBE770682146FFF712
S1133D60A5F918B168682146FFF73AF90020D0E7B1
S1133D706868FFF731FAA042D5D140F29110C8E744
S1133D806868114EFFF728FC0028E6D040F2951031
S1133D90BFE770682146FFF723F94FF6FF730193DD
S1133DA004E0019B43B1019B013B0193686804213A
S1133DB0FFF77CF90028F4D1019B002B0CBF4FF4D2
S1133DC0CD700020A5E700BFAC02002001280FD071
S1133DD0022801D00020704708B508460021FFF7EB
S1133DE0CBFE40B140F29113984208BF002008BDB9
S1133DF00846FFF787BF002008BD00BF51B170B56A
S1133E0000250D600C460646FFF7C6F928B90323C2
S1133E10184670BD012318467047044B3146586854
S1133E20FFF734FB2B462060184670BDAC0200201F
S1133E3038B5114D2B6893F8290010F0010000D11A
S1133E4038BD002001F06CF968680C4CFFF7D0FC19
S1133E5001E06CB1013C6868FFF7DAFC0028F8D097
S1133E60002001F02DF9002C0CBF1420002038BDD7
S1133E7001F026F91420E3E7AC020020FFFF0F0055
S1133E8038B5114D2B6893F8290010F0010000D1CA
S1133E9038BD002001F044F968680C4CFFF7B0FC11
S1133EA001E064B1013C6868FFF7B2FC0028F8D176
S1133EB001F006F9002C0CBF1420002038BD204668
S1133EC001F0FEF81420E3E7AC020020FFFF0F002E
S1133ED0F8B51C4D2B6893F8293013F0010324D056
S1133EE0194B1E5CFF2E01D10320F8BD002001F008
S1133EF017F96868154CFFF78BFC0746FFF7C0FFFE
S1133F0068683146FFF764FC01E09CB1013C6868D5
S1133F10FFF768FC8642F8D14FB9002001F0D0F8D1
S1133F20002C0CBF14200020F8BD1846F8BDFFF784
S1133F307FFFF2E7002FFAD1384601F0C1F81420D0
S1133F40F8BD00BFAC02002048E50000FFFF0F00F1
S1133F5008B5054B1A6892F82920920702D55868CB
S1133F60FFF7D6FB002008BDAC02002008B5054BC6
S1133F701A6892F82920920702D55868FFF7D8FBEF
S1133F80002008BDAC02002008B5064B1A6892F860
S1133F902920520703D501465868FFF7D9FB0020B2
S1133FA008BD00BFAC02002008B500F0EFFD07EE2D
S1133FB0900AB8EE677AF7EE007A87EE877ADFED3B
S1133FC0097ADFED096A67EE277AC6EEA77AFCEE76
S1133FD0E77A17EE900AFFF7D1FB00280CBF1220F6
S1133FE0002008BD0024744900401C4608B9032081
S1133FF07047FFF7D9BF00BFF0B587B00C46054640
S1134000FFF7B6F810B9032007B0F0BD002C78D044
S1134010684EA179326892F829301F076AD4D8060D
S113402002D560788842EED323F07F0303F0FF00CB
S113403013B163798B42E6D392F82A30DF0702D5B5
S113404023798B42DFD3042D58D0002328468DF8E2
S113405008308DF81430FFF729FA062103907068B0
S1134060544FFFF713FA049002A800F09FFD0028B4
S1134070CAD17868FFF796F8854205D0002D42D062
S1134080032D40D0052D3ED070684A4F0021FFF724
S113409015FA70686946FFF789F99DF80620A37937
S11340A09A4244D221467868FFF748F9786829464D
S11340B0FFF77EF800F06AFD3F4B042D18603FD0F7
S11340C0022D4DD0012D54D0032D57D0052D68D08D
S11340D006217068FFF7DAF90123049002A88DF82D
S11340E0083000F063FD044600288DD1FFF75CFF23
S11340F0204689E72078884285D390E761B105207E
S113410082E7012080E770682946FEF7B9FF00289E
S1134110BAD140F2931077E763790BB10028EED15E
S11341207068FFF759FA0028E9D1A1798DE778681A
S11341302946FFF73DF878682146FFF7FFF8B9E70D
S113414033681C4993F82820120625D49A685AB972
S11341505B68002BBCD070680121FFF7AFF9B7E7AB
S113416033689A68002AF3D070680321FFF7A6F930
S1134170AEE733685B68002BAAD0ECE733685A6873
S1134180904201D9002AA3D19B6898420ED9002BF2
S11341909ED0002AE8D0DEE748682946FFF78EF96A
S11341A096E733685B68984292D8D4E7002B8FD0A7
S11341B0DAE700BFAC0200202853002000287DD09D
S11341C02DE9F047054686B006A800232F7800F8AD
S11341D0113D04A98DF810308DF811308DF812308E
S11341E08DF813308DF814308DF815308DF81630A5
S11341F0FFF788FB95F815E0EE7C297DEA7DAB7D21
S11342002C7E8DF808E038468DF80A608DF8091088
S11342108DF80B208DF80C308DF80D40FEF7A8FFBB
S113422018B9032006B0BDE8F0872B7806AA13441A
S113423013F8103C012BF4D0022C41D0DFF8E480B9
S1134240D8F8003093F8283013F0300F14BF062646
S11342500526002440F2911905F1040A052CE1B267
S113426048D002AB185DFFF7B1FD08B14845D9D17C
S11342700134B442F2D13846FFF766FC0028D1D1AC
S113428005F10C013846FFF7B7FE0028CAD19DF8A6
S11342900740A74210D006AB234413F8100C0128A2
S11342A022D0D8F80400FEF797FF06AB034401467A
S11342B013F8100C012810D00020B3E70120704738
S11342C02879FEF755FF0028ABD02B7906AA1344B2
S11342D013F8103C012BB1D1A3E7052CECD18F428C
S11342E0EAD0FFF773FD9DE72146FFF76FFD002835
S11342F0D7D097E79DF80D30022BB2D12879002151
S1134300FFF73AFC08B148458CD12879FFF71CFC2B
S11343105146002886D10520FFF72EFC0028A7D09F
S1134320A4E700BFAC02002020B1034B1B6803606C
S1134330002070470120704754E5000030B129B1D6
S1134340074BC2689A4203D0072070470120704788
S11343508368002BFAD01B889BB20B600020704747
S11343605447410058B1074BC2689A4201D0072014
S1134370704783681BB1F1221A7200207047012034
S1134380704700BF5447410030B510F0FC0F87B0B0
S113439008D005280D460BD04FF400430B600020D5
S11343A007B030BD114B01209B69984707B030BD61
S11343B006A80F4B00242F220194DB6800F8142D6B
S11343C002A902940394049405949847029B587A92
S11343D02946C0F30210FFF7D7FF064A2B6812885C
S11343E0B3FBF2F320462B60DAE700BFE8E40000F9
S11343F08CE40000DC02002030B129B1254BC268F6
S11344009A4203D007207047012070472DE9F041FC
S1134410876882B0002F35D00D4602A90023028A96
S113442041F8043DAA606B607E7ABB7AC6F302163B
S11344300446304603F00708FFF7A6FF90B971075A
S113444005D4012E23D0032E1ED0019B04E0052E9B
S1134450FBD0019B23FA08F36B602BB91B2002B03D
S1134460BDE8F0816B68F8E700232B703A7AD20735
S113447058BF01232B73A37C03EB43034033EB812D
S11344800020ECE70120EAE7019B5B08E4E7019BDD
S1134490DB08E1E7544741002DE9F04383B002AD66
S11344A0447A9DF828800646002045F8040DC4F39C
S11344B002140F462046294699461546FFF764FF25
S11344C010B103B0BDE8F0830198B8F1060F05D828
S11344D0DFE808F05B5E666D757806000320F0E7A0
S11344E04FF47A72A9FB0223002109F00DF834F08D
S11344F0030E6DD100234FF6FF728B4208BF824238
S113450014D249084FEA30008B4208BF82427FD25E
S1134510830843EA81738A08184611460124002956
S113452008BFB0F5803FD9D24FF0000E96F808C00E
S1134530F02333720CF0010C4FF0FF3301E0013B28
S113454064D0327A9207FAD4737A23F0700343EA80
S113455004147472B37A0EF0070E23F0070343EACF
S11345600E0E83B286F80AE03B802A780AB92C4AF8
S1134570138010F1FF306CF00F0C80B25FFA8CFCEA
S11345803080002086F808C09BE748460021AEE74B
S1134590A9FB000120A3D3E9002308F0B5FFA6E797
S11345A0A9FB00011F4A002308F0AEFF9FE7A9FB07
S11345B000014FF47A72002308F0A6FF97E7A9FBE5
S11345C0000194E700214A460B4608F09DFF8EE760
S11345D0052CA4D000234FF6FF728B4208BF824201
S11345E04FF0000E04D3A1E7BCF1070F3FF476AF00
S11345F049084FEA30000EF1010E8B425FFA8EFC3F
S113460008BF8242E646EFD3E6468FE7142058E718
S113461003248BE7AFF3008000CA9A3B000000003C
S1134620DC02002040420F0068B130B50D4CC56873
S1134630A54283B002D0072003B030BD85687DB1A8
S113464019B90320F8E70120704704460B4600928D
S1134650284604F1100104F11202FFF71DFFEBE7F5
S11346600120E9E75447410008B3134BC2689A425A
S113467001D0072070478168C9B110B40B7AF022C9
S11346800A7203F001044FF0FF3201E0013A10D046
S11346900B7AC3F34003002BF8D164F00F04028AB1
S11346A00A80E4B218460C725DF8044B704701208E
S11346B070471420F8E700BF54474100A0B10C4BE9
S11346C0C2689A4201D007207047826862B1F02321
S11346D013724FF0FF3301E0013B07D0107AC0F3AF
S11346E040000028F8D1704701207047142070471B
S11346F05447410000B330B4194CC568A54202D0F8
S1134700072030BC704784683CB3012A008A17D064
S113471014D3022A0ED100FB01F1124A4909A2FB6B
S11347200121C909884205D393B13023A180002017
S1134730A373E6E70320E4E70120704789B2F1E7B9
S1134740094A00FB01F1A2FB0121C1F34F11E9E782
S1134750032261801846A273D3E70120D1E700BF8A
S113476054474100C55A7C0A1F85EB51F0B589B006
S113477000230393002938D0002836D0834C4A7C88
S113478004930E462F2105460593069307938DF84F
S11347900C10E368ADF80E2003A804A9984710BBD9
S11347A0049F236904900221AF6004AA03A89847D8
S11347B09DF81000E87441B211F1210F0FD0744A32
S11347C0B37C126800293ADB01F160401B0100F55B
S11347D06140DBB280F8003352F831301D6003A829
S11347E000F0F2FB20B109B0F0BD012009B0F0BD2A
S11347F003A800F0A5FBF0233B724FF0FF3301E068
S1134800013B71D03A7A9207FAD43B7B23F004033C
S11348103B733B7B23F001033B737369002B00F074
S1134820A78095F91330213311D10B2403A800F08C
S113483083FB03A800F0FCFB204609B0F0BD554CF7
S113484000F00F001B010444DBB22376C4E7AA681E
S1134850137A03F00F03137295F9130000F074FB3D
S1134860EA7C42F3C40323F0604323F0030303F11F
S1134870604303F5614302F01F0101228A40C3F83B
S113488080211A607269B36985E80C00F169002916
S113489067D0A8680B78427A03F0070322F070020D
S11348A042EA031242724B7803B3AA68137B43F0C3
S11348B0040313734B78CBB1A868CB78027B03F065
S11348C0010322F001021343037301237A7A03F0F4
S11348D0070322F0070213437B72737CAB74736883
S11348E0327A3BB90324A1E714249FE78B78002B89
S11348F0E2D1EBE70092384605F1100105F112020E
S1134900FFF7CAFD0446002890D13378022B08D063
S1134910F27C2B750AB1F1233B721F4BEB60002034
S113492061E7327CF368298A012A27D024D3022A3A
S1134930D8D103FB01F3194A5B09A2FB0323DB096A
S11349409942CFD3F269117919B1A96803204B8038
S1134950887352791AB1AA6830219380917333789D
S1134960D6E7A868427A22F070020B464272ADE79D
S11349703378012B8AD154E79BB2E1E7084A03FB61
S113498001F3A2FB0323C3F34F13D9E78CE4000024
S113499004EA0000FCEC00E054474100C55A7C0ADC
S11349A01F85EB51002848D0264BC2689A4201D09B
S11349B007207047816800293FD0F0230B724FF025
S11349C0FF3301E0013B3AD00A7A9207FAD430B5BA
S11349D00B7B23F004030B730B7B23F001030B739A
S11349E0C27C53B213F1210F83B009D05B09203389
S11349F002F01F020121144C01FA02F244F82320B0
S1134A0004462F22A37C002501A80195ADF80630A9
S1134A108DF8042000F090FA94F9133013F1210F6B
S1134A2004D00A4A126852F833301D6001A800F01D
S1134A30FFFA0020E06003B030BD0120704714206D
S1134A40704700BF5447410000E100E004EA000061
S1134A5010B582B0EFF30383114A103B12685BB2C6
S1134A6052F833301C68EFF30380103840B200F082
S1134A706BFA6CB1A3685BB1227D012A0AD023686A
S1134A8033B16268009200228DF80420684698478A
S1134A9002B010BDF0221A72228A1A80EFE700BF1A
S1134AA004EA000068B1084AB2F8003103F00103D7
S1134AB0037092F800316FF3000382F80031002094
S1134AC070470120704700BF00C00140104991F8B1
S1134AD0043143F0010381F80431B1F80431DB07F8
S1134AE00CD54FF0FF3300E033B1B1F80421D20705
S1134AF003F1FF33F8D40BB914207047044A92F839
S1134B00003160F3000382F800310020704700BFD9
S1134B1000C0014070B51C4D82B02B68984701203D
S1134B20FFF7D4FF0021AE680320B04701214FF006
S1134B3082420323EC698DF8011001928DF8003054
S1134B400320A047B0F5C97FFAD169460520B047D4
S1134B500520A047B0F5C97FFAD1002301222C69B2
S1134B608DF8063069468DF800308DF802308DF8E6
S1134B7003308DF801208DF805208DF804200520E0
S1134B80A04702B070BD00BFE8E4000000B583B0E8
S1134B9002A9002341F8043D034B06209B69984772
S1134BA0019803B05DF804FBE8E400000378826830
S1134BB010B43BB9254944688C4220D818465DF8A6
S1134BC0044B7047012B32D1204B9A422FD8204AF4
S1134BD092F8A03013F0030329D14AF20151A2F84C
S1134BE0FE1392F831104FF4254421F0010182F8AC
S1134BF03110A2F8FE4318465DF8044B70478A4210
S1134C0019D8134B93F8A020920714D14AF20152F9
S1134C10A3F8FE2393F831204FF4254142F001021A
S1134C2083F83120A3F8FE130378012BCFD00020A2
S1134C305DF8044B7047064B5DF8044B93F8313034
S1134C4013F0010F14BF0020052070470048E8014D
S1134C5000E00140037803F0FE0343F00203037015
S1134C60704700BF014B0360704700BF80E5000040
S1134C70044B002103F1300243F8041B9342FBD19F
S1134C80704700BFE0020020024B43F820100020D0
S1134C90704700BFE002002008B57A4BB3F84031FA
S1134CA0D90700F1C180774BB3F840319A0700F17E
S1134CB0B080744BB3F840315B0700F19F80714BB7
S1134CC0B3F84031180700F18E806E4BB3F84031D1
S1134CD0D9067CD46B4BB3F84001C0F38010002894
S1134CE069D1684BB3F840311A0658D4654BB3F810
S1134CF04031DB0547D4634BB3F84031980536D4D3
S1134D00604BB3F84031590524D45E4BB3F84031BD
S1134D101A0512D45B4BB3F84031DB0400D408BD50
S1134D20594BDB6A002B40F0AA80564AB2F8303166
S1134D3043F48053A2F8303108BD534B9B6A002BD7
S1134D4040F09A804F4AB2F8303143F40063A2F83D
S1134D503031DFE74C4B5B6A002B40F08A80494AD4
S1134D60B2F8303143F48063A2F83031CDE7464BDA
S1134D701B6A002B7AD1434AB2F8303143F40073F2
S1134D80A2F83031BCE7404BDB69002B6BD13D4AC4
S1134D90B2F8303143F48073A2F83031ABE73A4BC8
S1134DA01B68002B5CD1374AB2F8303143F08003E2
S1134DB0A2F830319AE7344B5B68002B4ED1314A6C
S1134DC0B2F8303143F04003A2F8303189E72E4B7A
S1134DD09B69002B3FD12B4AB2F8303143F01003CA
S1134DE0A2F8303176E7284B5B698BBB254AB2F8D1
S1134DF0303143F00803A2F8303166E7224B1B69D7
S1134E001BBB204AB2F8303143F00403A2F830311E
S1134E1055E71D4B9B68ABB91A4AB2F8303143F0E1
S1134E200203A2F8303144E7174BDB683BB9154A5B
S1134E30B2F8303143F00103A2F8303133E70320F4
S1134E409847F4E702209847E6E704209847D8E714
S1134E5005209847CAE706209847BCE79847AEE77D
S1134E60002098479FE70720984790E70820984735
S1134E7081E70920984772E70A20984762E70B20E8
S1134E80984752E700600040E00200200378452B79
S1134E9020D8274AD25CFF2A1AD0F0B49609254DAF
S1134EA04788447855F8265002F01F00920613D51F
S1134EB00124242B04FA00F220D02B2B32D1032F0F
S1134EC002D9204404FA00F2F1B10320F0BC704787
S1134ED003207047012070473C44001B012282409C
S1134EE091B1EFF31083012181F3108829680A43FB
S1134EF02A6083F310880020F0BC7047012F08BF9C
S1134F004FF080420029ECD1EFF31083012181F3AB
S1134F101088296821EA02022A6083F3108800209D
S1134F20F0BC70470029EFD0242BCED1D9E700BFC5
S1134F30BCE90000ACE900000121FFF7A7BF00BFF6
S1134F400021FFF7A3BF00BF002808DB800000F1A9
S1134F50804000F5C640036823F480330360704743
S1134F600B4A0C4B10B49B1A0B4CDB08236063B147
S1134F700A4800219388C3F3090340F8043F2368D7
S1134F8001318B4202F10802F4D85DF8044B7047FA
S1134F90000500002805000010030020FC6200400A
S1134FA0012202E0C0E8432F43B1D0E84F3F13F0A1
S1134FB0FF0FF7D0BFF32F8F0820704718467047B4
S1134FC000230370704700BF164B10B41C687CB1FB
S1134FD0154B00681A681368984218BF002304D15F
S1134FE00AE052F8041F814207D00133A342F8D1EA
S1134FF003205DF8044B704700230C4A126801211A
S1135000134403E0C3E8401F0028F2D0D3E84F2F35
S113501012F0FF0FF6D0BFF32F8F08205DF8044B7A
S1135020704700BF14030020180300201C03002055
S11350300F4B10B41C687CB10E4B00681A681368DF
S1135040984218BF002304D109E052F8041F81429A
S113505006D00133A342F8D15DF8044B7047002316
S1135060054A12680021D1545DF8044B704700BF13
S113507014030020180300201C03002038B50A4C38
S11350800A4D0B480B490C4B0C4A04602D1BAD0810
S11350900D601A603DB104EB850520460434FFF72A
S11350A0C7FFAC42F9D138BD2805000074060000E2
S11350B018030020140300201C03002028020020F1
S11350C0EFF31081012383F31088124B33F810207F
S11350D092B22AB133F81020013A92B223F8102088
S11350E033F810309BB293B910B40B4A0B4CB2F89E
S11350F0FE3334F810009BB243F4254323EA000343
S1135100A2F8FE3381F310885DF8044B704781F3F5
S1135110108870472003002000E0014008EA0000E6
S113512030B4EFF31084012383F310880D4A32F86E
S113513010309BB25BB90C4D0C49B5F8FE3331F815
S113514010109BB243F425430B43A5F8FE3332F809
S1135150103001339BB222F8103084F3108830BC35
S1135160704700BF2003002000E0014008EA00006F
S1135170024B00221A805A809A8070472003002034
S113518000BE704708B500F005F804F063FAFEE7C6
S1135190704700BF70B5374A374ED2F8883043F4B1
S11351A0700382B0C2F888300020FFF7F1FFFFF7E8
S11351B05FFD324B1B6898470024FFF7D9FFFFF7C8
S11351C0A9FC2F4B8DF807409DF807205D682D4AF8
S11351D02D492E48096825F000455D60156805F0E5
S11351E001058DF80750156805F001058DF8075085
S11351F0126802F001028DF807205A6842F000425A
S11352005A6034808847224A224BD21A05D01A4465
S1135210214603F8011B9342FBD11F481F4BC01AC0
S113522007D01F4A184412F8011B03F8011B8342DC
S1135230F9D1FFF7ABFC1B4C1B4B1C4D18602D1B0D
S11352400120FFF7A5FF032DC8BF2D1904DD54F875
S1135250043B9847AC42FAD1FFF710FFFFF780FEFA
S1135260134B14481B689847002004F0B7F802B0A9
S113527070BD00BF00ED00E0D40200208CE400000B
S11352800070044000080440C0E30000E4EB0000A8
S1135290C45D0020B80200207B0200200000002032
S11352A074F000001C02002028530020200200207B
S11352B0A8E4000010EA00002DE9F04F574A584BCB
S11352C014788FB04FF0020E0590049153F8240027
S11352D00092002409AD0CA98DF830E00D950994D5
S11352E00A940B9403F08EFB0999009A01F00705C8
S11352F06D18A24692F800E01DD04A4A52F82E20BA
S1135300D2F80CC020465146E308A4F1200A1CF848
S11353100320C4F1200302FA04F602FA0AF722FA7F
S113532003F308341F43AC4240EA060041EA070194
S1135330EAD3CDE90A013C4B13F81E20CAB1DFF8C9
S1135340ECC04FEA8E1E04990023E6440B809EF8BD
S1135350013053B19EF803300598834205D90EAB52
S113536003EB400333F8103C0B8000200FB0BDE882
S1135370F08F03EB4E03DFF8B4C05F784FEA8E1E64
S1135380002F46D00CEB0E03DDE90AABDE6B0020E8
S11353900021CDE90201013E0120CDE900AB02E08C
S11353A00132BA4230D016F8013FC3F12001FF2B7D
S11353B0A3F1200420FA01F1F2D000FA04F9DDE9A6
S11353C0004549EA010900FA03F805EA090504EA77
S11353D00804A94508BFA045E2D1DDE90245A2F1D0
S11353E02001C2F1200300FA01FB20FA03F300FAC2
S11353F002FA4BEA030B013244EA0A0445EA0B05BC
S1135400BA42CDE90245CED1DDE90223CDE90A2332
S113541099E700220023CDE90223F5E72C030020BD
S1135420C85300203053002000000020E453002023
S11354302DE9F04F0C4689B00D281BD8DFE810F099
S11354409900ED000E001A001E001E003B004000F3
S113545045004A004F006700800022004FF6FF71AC
S1135460AA4B11801B78AA4901EB43004078A04263
S113547000F2FF80FF2009B0BDE8F08F002009B0E2
S1135480BDE8F08F4FF6FF71A04B11801B78A04947
S113549001EB43004078A042ECD911F81310002925
S11354A0ECD09C4951F823309B6803EBC4040020E2
S11354B0E3881380DFE711460020FFF7FDFEDAE7FB
S11354C011460120FFF7F8FED5E711460220FFF749
S11354D0F3FED0E711460320FFF7EEFECBE74FF6CD
S11354E0FF718A4B11801B78894901EB4300407896
S11354F0A042BFD911F81300864951F823309B68A4
S1135500002840F0F38033F824301380B3E74FF6DB
S1135510FF717E4B11801B787D4901EB430040787D
S1135520A042A7D911F813100029A7D0794951F83E
S113553023309B6803EBC4040020A38813809AE7FC
S11355404FF6FF71714B11801B78714901EB4300D9
S11355504078A0428ED911F813006E4951F82330D7
S11355609B68002840F0C78003EB840463881380A1
S113557081E7664B66491878674B069201EB400158
S113558004EB8005497803EB45034FF0090E01272E
S113559002264FF6FF75A14204938DF80CE08DF8B6
S11355A01470079615807BD8FF20002C7FF463AF1E
S11355B05A4B1D8805F1200C03EB4C0CD3E904ABCA
S11355C0BCF804E0A3F804E0118801FB01F6CEEB7B
S11355D0010899680EFB0EFEF71741440135B6EB3E
S11355E00E0867EBEE79ADB2464616EB0A064F4657
S11355F01D801288ACF8042047EB0B07A1FB01893E
S1135600082D9960C3E90689C3E904677FF433AFC1
S113561001221C8083F854202DE73C4B3C49187828
S11356203D4B069201EB400104EB8005497803EB06
S113563045034FF00B0E012702264FF6FF75A142DA
S113564004938DF80CE08DF81470079615807FF69E
S113565011AF334B03EB8013DB6B1B5DFF2B3FF46C
S11356600DAF304B03A953F8200002F05FF900207E
S113567001E711F813002A4901EB8311C96B095D95
S113568010BBFF293FF4FAAE224C54F823309B6838
S1135690002B3FF4F3AE03EB81035B881380EAE64F
S11356A01F4B03EB8013DB6B1B5DFF2B29D01D4BC2
S11356B0019203A953F8200002F038F90020019A5E
S11356C0002C3FF475AFD6E6FF293FF4D7AE11485E
S11356D050F823309B68002B3FF4D0AE03EBC1039A
S11356E00020D9885B88CB1A1380C4E633F83430A1
S11356F013800020BFE603EBC404002063881380FA
S1135700B9E60020002C3FF453AFB4E62C0300208C
S11357100000002024540020D053002038530020DF
S1135720E4530020BC5300202DE9F04F724ADFF807
S1135730D0A1147850788AF8010044F080038BB02B
S11357408AF80030442C00F25C81DFE814F0550044
S11357503501DB00140175005A015A015A015A013E
S11357605A015A015A015A015A015A015A015A015D
S11357705A015A015A015A015A015A015A015A014D
S11357805A015A015A015A015A015A015A015A013D
S11357905A015A015A015A015A015A015A015A012D
S11357A05A015A015A015A015A015A015A015A011D
S11357B05A015A015A015A015A015A015A015A010D
S11357C05A015A015A015A015A015A015A018500D3
S11357D05A019B00B40045000A2800F21981DFE851
S11357E010F030011E0139011701170117011701CB
S11357F0170317011701320100220325FF218AF83C
S113580002508AF804108AF805208AF806200F2826
S113581000F2FC87DFE810F01B03180315030A03EA
S11358206F0365035B03510347033D0333032903FC
S11358302603230320031E03C11E14790A46072AE4
S113584000F2DF80DFE812F06B0263025D024E02B9
S1135850DD00E902DA02E0029AF80240034423443C
S1135860DBB254B1601EC0B204302449504411F874
S1135870012F13448142DBB2F9D18AF803300BB013
S1135880BDE8F08F55791179947901EB0522012156
S113589092B2A5B28AF80210092800F26087DFE804
S11358A010F0B601870174014601F100EC00EC0030
S11358B0EC00E401260154791179957901EB042473
S11358C0A4B2AAB2142800F2A380DFE810F04503C2
S11358D037031E031904A100A100E303CE03B90397
S11358E0A4038B035D03A10488046F0456044804D5
S11358F0A100ED05F80327040400002097530020BD
S11359009453002012790124FF2195B28AF80240B1
S11359108AF804102C286BD8DFE810F03C06D50672
S1135920C706BA06AD06070607060706150690065B
S113593007066A006A006A006A006A006A006A0070
S11359406A006A006A006A006A006A0007066A0060
S11359506A006A006A006A006A006A006A006A00F3
S11359606A006A006A006A006A006A0078065806DB
S11359706806E30688061279002195B2ADF8161080
S1135980172845D8DFE810F08B05860581057C05CE
S1135990440044004E05490544053F053A052605E3
S11359A01205FE04EA04D604C104AB0490045D04A9
S11359B0B5054400440066051179BE4DFF2301245A
S11359C008AA8AF802408AF80430FFF731FDFF285C
S11359D000F0C986BDF820306B7103241B0A002235
S11359E0AB71AC702A719AF800309AF8010035E76F
S11359F0012403442344DBB234E79AF800309AF8D4
S1135A0001000124FF228AF802408AF80420F0E70A
S1135A10FF2201248AF804208AF80240E9E7A64E0E
S1135A20A64DA74C002333702B7854F8230003F0C1
S1135A3059FA0828F8D0012333709AF801009AF82B
S1135A4000300022E5E711790029E1D19B4C0A4698
S1135A502170DEE796789B4A5EB1751EEDB204357F
S1135A6099491544033212F8014F01F8014FAA4233
S1135A70F9D1964900220E76CBE7012400228AF858
S1135A800420EBE68D4D924B29788D48ADF8162015
S1135A9003EBC10350F82100DA70002406AB0222A4
S1135AA008A90993ADF818408DF8202002F0AAFF48
S1135AB0BDF818309BB1591E89B2864B2A78013142
S1135AC001EB810153F8225089002346AA68BDF8EE
S1135AD016001A4414338B42A2F80500F6D19AF842
S1135AE000309AF801009AF802400022C7E773498F
S1135AF0794E0978ADF8202006EB41025278AA428B
S1135B00BBD9764A02EB8112D26B125DFF2AB4D064
S1135B10704DBDF8204055F82110896802EB8202CF
S1135B2001EB820100224C809AF80240A7E7634D02
S1135B30674B29786248ADF8142003EBC10350F891
S1135B4021009A70002406AB022208A90993ADF83B
S1135B5018408DF8202002F055FFBDF81830002BB6
S1135B60BDD0591E89B25B4B2A78013101EB81010A
S1135B7053F8225089002346AA68BDF814001A4439
S1135B8014338B429080F7D1A9E74C49514C0D78DE
S1135B904F4954F825600AAC766824F8182D01EBB7
S1135BA0C501248874809AF80240CA80002266E7FE
S1135BB0424D474B29784248ADF8122003EBC1030C
S1135BC050F821009A80002406AB022208A9099308
S1135BD0ADF818408DF8202002F014FFBDF81830FD
S1135BE0002B3FF47CAF591E89B23A4B2A7801311D
S1135BF001EB810153F8225089002346AA68BDF8BD
S1135C0012001A4414338B42D080F7D167E72B4932
S1135C10334C0978655C02F0010625F0080545EA75
S1135C20C6056554655CC2F3400625F0100545EAD7
S1135C3006156554655CC2F3800625F0200545EA27
S1135C4046156554655CC2F3C00625F0400545EA77
S1135C5086156554655CC2F3001205F07F0545EABC
S1135C60C21262540124002209E714491A4E097829
S1135C70ADF8182006EB41025278AA427FF6FDAE39
S1135C80164A02EB8112D26B125DFF2A3FF4F5AE85
S1135C90104BBDF8180053F8213002EB82029B68C8
S1135CA023F8220000229AF800309AF801009AF8AA
S1135CB00240E4E694530020345300202C030020D7
S1135CC0C85300200400002027540020285400203A
S1135CD0D85300203053002000000020E45300205B
S1135CE0C05300200324152300228AF802408AF8B6
S1135CF004201A0A8AF805308AF806209AF8003037
S1135D00ACE5AE4BAE4A1B780324D35CECE7AD4B59
S1135D101B7800334FF0020418BF0123E4E7AA4BB9
S1135D20AA4C197E00260396B346039B8B4280F04F
S1135D301D85FF2E3FF461AE0398A34D821CD2B2A1
S1135D400346AA5C01920133DBB215469E4A12F85F
S1135D5003801746C31CDBB2A8453F5C0393E4D21F
S1135D60BB1FDBB20293029B032B40F2EC84984BE3
S1135D70924903EB48023B1F012B81F800805578C0
S1135D8040F2BF84002D00F0D084FF2E28D04FF0C5
S1135D9000090EE0BDF820200BF80420AE454FEAC0
S1135DA012221A551FFA8CFB894680F0BE84FF2EFE
S1135DB016D01FFA89F1384608AAFFF739FB0BF110
S1135DC0010309F10101FF289BB20BF1020C5FFAF8
S1135DD081FEDFD109F10103DBB2AB4280F0B9846B
S1135DE008F10108019B5FFA88F8434598BFFF2634
S1135DF040F2B184744BFF26197E96E7744B03EB93
S1135E00440303245B786FE76C4B03241B786BE734
S1135E10704912790A700022FBE5002303248AF8F2
S1135E2004308AF8024040F2011362E7122234245B
S1135E3000218AF805408AF806208AF80410032411
S1135E40D7E511220A24F3E716220324F0E70446D7
S1135E500122EDE72246EBE715222824E8E7032296
S1135E601524E5E716220824E2E75B4A1168CC7B97
S1135E708A7B02EB042292B2D4B2120AD8E7564AC1
S1135E8011684C7B0A7B02EB042292B2D4B2120A50
S1135E90CEE7514A1168CC7A8A7A02EB042292B294
S1135EA0D4B2120AC4E74C4A11684C7A0A7A02EB5B
S1135EB0042292B2D4B2120ABAE7474A1168CC79E2
S1135EC08A7902EB042292B2D4B2120AB0E7424AAF
S1135ED011684C790A7902EB042292B2D4B2120A04
S1135EE0A6E73D4A1168CC788A7802EB042292B284
S1135EF0D4B2120A9CE7384A11684C780A7802EB4B
S1135F00042292B2D4B2120A92E72C4A334B12788A
S1135F10334953F82230186884701B6851F8220002
S1135F200233162208A909938DF8202002F06AFD95
S1135F309AF800309AF8010000226AE51F4A274BBC
S1135F401278274953F82230186844701B6851F8B6
S1135F50220001331522E5E7184B204A1B7820491B
S1135F6052F8232010680470126851F82300099233
S1135F70142308A98DF8203002F044FD9AF800306B
S1135F809AF80100002244E50AAB0C4E144D327815
S1135F900020002163E9040108A9099355F82200AF
S1135FA00B238DF8203002F02DFD33788DF8184046
S1135FB055F8230008A91923DCE700BF2C030020AF
S1135FC0B453002034530020285400209953002057
S1135FD0000000202D03002028030020245400206A
S1135FE0C85300200AABAB4EAB4D327800200021E1
S1135FF063E9040155F82200099308A90A238DF8DE
S1136000203002F0FFFC33788DF81C4055F8230053
S113601008A91823AEE70AAB9E4E9F4D32780020A4
S1136020002163E9040155F82200099308A90A2311
S11360308DF8203002F0E6FC33788DF81B40E5E75C
